{
  "_format": "hh-sol-artifact-1",
  "contractName": "Attendance",
  "sourceName": "contracts/Attendance.sol",
  "abi": [
    {
      "inputs": [],
      "name": "IM_HERE",
      "outputs": [],
      "stateMutability": "payable",
      "type": "function"
    },
    {
      "inputs": [],
      "name": "numberAttending",
      "outputs": [
        {
          "internalType": "uint256",
          "name": "",
          "type": "uint256"
        }
      ],
      "stateMutability": "view",
      "type": "function"
    }
  ],
  "bytecode": "0x60806040526000805534801561001457600080fd5b5060d8806100236000396000f3fe60806040526004361060265760003560e01c8063169b3f6f14602b578063762e2348146033575b600080fd5b60316059565b005b348015603e57600080fd5b506045606d565b604051605091906073565b60405180910390f35b600080549080606683607c565b9190505550565b60005481565b90815260200190565b6000600019821415609b57634e487b7160e01b81526011600452602481fd5b506001019056fea26469706673582212206020b86312c858664ba47251af2f23b48dc84c21e1be8337681e8ff1b1731c9a64736f6c63430008000033",
  "linkReferences": {},
  "deployedLinkReferences": {}
}