{
  "_format": "hh-sol-artifact-1",
  "contractName": "Attendance",
  "sourceName": "contracts/Attendance.sol",
  "abi": [
    {
      "inputs": [],
      "stateMutability": "nonpayable",
      "type": "constructor"
    },
    {
      "anonymous": false,
      "inputs": [
        {
          "indexed": false,
          "internalType": "uint256",
          "name": "sessionId",
          "type": "uint256"
        },
        {
          "indexed": false,
          "internalType": "address",
          "name": "student",
          "type": "address"
        },
        {
          "indexed": false,
          "internalType": "bool",
          "name": "status",
          "type": "bool"
        }
      ],
      "name": "AttendanceMarked",
      "type": "event"
    },
    {
      "anonymous": false,
      "inputs": [
        {
          "indexed": false,
          "internalType": "address",
          "name": "instructor",
          "type": "address"
        }
      ],
      "name": "InstructorAdded",
      "type": "event"
    },
    {
      "anonymous": false,
      "inputs": [
        {
          "indexed": false,
          "internalType": "uint256",
          "name": "sessionId",
          "type": "uint256"
        }
      ],
      "name": "SessionClosed",
      "type": "event"
    },
    {
      "anonymous": false,
      "inputs": [
        {
          "indexed": false,
          "internalType": "uint256",
          "name": "sessionId",
          "type": "uint256"
        },
        {
          "indexed": false,
          "internalType": "string",
          "name": "title",
          "type": "string"
        },
        {
          "indexed": false,
          "internalType": "uint256",
          "name": "startTime",
          "type": "uint256"
        },
        {
          "indexed": false,
          "internalType": "uint256",
          "name": "endTime",
          "type": "uint256"
        }
      ],
      "name": "SessionCreated",
      "type": "event"
    },
    {
      "inputs": [
        {
          "internalType": "address",
          "name": "instructor",
          "type": "address"
        }
      ],
      "name": "addInstructor",
      "outputs": [],
      "stateMutability": "nonpayable",
      "type": "function"
    },
    {
      "inputs": [
        {
          "internalType": "uint256",
          "name": "",
          "type": "uint256"
        },
        {
          "internalType": "address",
          "name": "",
          "type": "address"
        }
      ],
      "name": "attendance",
      "outputs": [
        {
          "internalType": "bool",
          "name": "",
          "type": "bool"
        }
      ],
      "stateMutability": "view",
      "type": "function"
    },
    {
      "inputs": [
        {
          "internalType": "uint256",
          "name": "sessionId",
          "type": "uint256"
        }
      ],
      "name": "closeSession",
      "outputs": [],
      "stateMutability": "nonpayable",
      "type": "function"
    },
    {
      "inputs": [
        {
          "internalType": "string",
          "name": "title",
          "type": "string"
        },
        {
          "internalType": "uint256",
          "name": "startTime",
          "type": "uint256"
        },
        {
          "internalType": "uint256",
          "name": "endTime",
          "type": "uint256"
        }
      ],
      "name": "createSession",
      "outputs": [
        {
          "internalType": "uint256",
          "name": "",
          "type": "uint256"
        }
      ],
      "stateMutability": "nonpayable",
      "type": "function"
    },
    {
      "inputs": [
        {
          "internalType": "uint256",
          "name": "sessionId",
          "type": "uint256"
        }
      ],
      "name": "getAttendanceStatus",
      "outputs": [
        {
          "internalType": "bool",
          "name": "",
          "type": "bool"
        }
      ],
      "stateMutability": "view",
      "type": "function"
    },
    {
      "inputs": [
        {
          "internalType": "uint256",
          "name": "sessionId",
          "type": "uint256"
        }
      ],
      "name": "getSessionDetails",
      "outputs": [
        {
          "internalType": "string",
          "name": "",
          "type": "string"
        },
        {
          "internalType": "uint256",
          "name": "",
          "type": "uint256"
        },
        {
          "internalType": "uint256",
          "name": "",
          "type": "uint256"
        },
        {
          "internalType": "bool",
          "name": "",
          "type": "bool"
        },
        {
          "internalType": "address[]",
          "name": "",
          "type": "address[]"
        }
      ],
      "stateMutability": "view",
      "type": "function"
    },
    {
      "inputs": [
        {
          "internalType": "address",
          "name": "student",
          "type": "address"
        }
      ],
      "name": "getStudentAttendanceHistory",
      "outputs": [
        {
          "internalType": "uint256[]",
          "name": "",
          "type": "uint256[]"
        }
      ],
      "stateMutability": "view",
      "type": "function"
    },
    {
      "inputs": [
        {
          "internalType": "uint256",
          "name": "sessionId",
          "type": "uint256"
        }
      ],
      "name": "getTotalAttendance",
      "outputs": [
        {
          "internalType": "uint256",
          "name": "",
          "type": "uint256"
        }
      ],
      "stateMutability": "view",
      "type": "function"
    },
    {
      "inputs": [
        {
          "internalType": "address",
          "name": "",
          "type": "address"
        }
      ],
      "name": "isInstructor",
      "outputs": [
        {
          "internalType": "bool",
          "name": "",
          "type": "bool"
        }
      ],
      "stateMutability": "view",
      "type": "function"
    },
    {
      "inputs": [],
      "name": "mainInstructor",
      "outputs": [
        {
          "internalType": "address",
          "name": "",
          "type": "address"
        }
      ],
      "stateMutability": "view",
      "type": "function"
    },
    {
      "inputs": [
        {
          "internalType": "uint256",
          "name": "sessionId",
          "type": "uint256"
        }
      ],
      "name": "markAttendance",
      "outputs": [],
      "stateMutability": "nonpayable",
      "type": "function"
    },
    {
      "inputs": [
        {
          "internalType": "uint256",
          "name": "sessionId",
          "type": "uint256"
        }
      ],
      "name": "openSession",
      "outputs": [],
      "stateMutability": "nonpayable",
      "type": "function"
    },
    {
      "inputs": [],
      "name": "sessionCounter",
      "outputs": [
        {
          "internalType": "uint256",
          "name": "",
          "type": "uint256"
        }
      ],
      "stateMutability": "view",
      "type": "function"
    },
    {
      "inputs": [
        {
          "internalType": "uint256",
          "name": "",
          "type": "uint256"
        }
      ],
      "name": "sessions",
      "outputs": [
        {
          "internalType": "uint256",
          "name": "id",
          "type": "uint256"
        },
        {
          "internalType": "string",
          "name": "title",
          "type": "string"
        },
        {
          "internalType": "uint256",
          "name": "startTime",
          "type": "uint256"
        },
        {
          "internalType": "uint256",
          "name": "endTime",
          "type": "uint256"
        },
        {
          "internalType": "bool",
          "name": "isActive",
          "type": "bool"
        }
      ],
      "stateMutability": "view",
      "type": "function"
    }
  ],
  "bytecode": "0x6080604052600060025534801561001557600080fd5b50600080546001600160a01b0319163390811782558152600160208190526040909120805460ff19169091179055610fed806100526000396000f3fe608060405234801561001057600080fd5b50600436106100ea5760003560e01c8063a3bfdf471161008c578063b7195c1e11610066578063b7195c1e146101f6578063b9399e1314610216578063cc64e2af14610229578063d937a94314610231576100ea565b8063a3bfdf47146101bb578063ade4f8a2146101d0578063b442f8c7146101e3576100ea565b806359d76a34116100c857806359d76a341461014b5780636cf649591461016f57806383c4b7a314610184578063a3afcea2146101a8576100ea565b8063100bff20146100ef5780631c0149e11461011857806335bc35a61461012b575b600080fd5b6101026100fd366004610c05565b610244565b60405161010f9190610cd3565b60405180910390f35b610102610126366004610bed565b610264565b61013e610139366004610b1b565b610287565b60405161010f9190610c8f565b61015e610159366004610bed565b610434565b60405161010f959493929190610cde565b610177610574565b60405161010f9190610c7b565b610197610192366004610bed565b610583565b60405161010f959493929190610f07565b6101026101b6366004610b1b565b61063f565b6101ce6101c9366004610bed565b610654565b005b6101ce6101de366004610bed565b610711565b6101ce6101f1366004610bed565b610812565b610209610204366004610bed565b610891565b60405161010f9190610eb1565b6101ce610224366004610b1b565b6108d6565b610209610993565b61020961023f366004610b3c565b610999565b600460209081526000928352604080842090915290825290205460ff1681565b600081815260046020908152604080832033845290915290205460ff165b919050565b6060600060025467ffffffffffffffff8111156102b457634e487b7160e01b600052604160045260246000fd5b6040519080825280602002602001820160405280156102dd578160200160208202803683370190505b509050600060015b60025481116103655760008181526004602090815260408083206001600160a01b038916845290915290205460ff1615610353578083838151811061033a57634e487b7160e01b600052603260045260246000fd5b60209081029190910101528161034f81610f7a565b9250505b8061035d81610f7a565b9150506102e5565b5060008167ffffffffffffffff81111561038f57634e487b7160e01b600052604160045260246000fd5b6040519080825280602002602001820160405280156103b8578160200160208202803683370190505b50905060005b8281101561042b578381815181106103e657634e487b7160e01b600052603260045260246000fd5b602002602001015182828151811061040e57634e487b7160e01b600052603260045260246000fd5b60209081029190910101528061042381610f7a565b9150506103be565b50949350505050565b606060008060006060600060036000888152602001908152602001600020905080600101816002015482600301548360040160009054906101000a900460ff168460050184805461048490610f3f565b80601f01602080910402602001604051908101604052809291908181526020018280546104b090610f3f565b80156104fd5780601f106104d2576101008083540402835291602001916104fd565b820191906000526020600020905b8154815290600101906020018083116104e057829003601f168201915b505050505094508080548060200260200160405190810160405280929190818152602001828054801561055957602002820191906000526020600020905b81546001600160a01b0316815260019091019060200180831161053b575b50505050509050955095509550955095505091939590929450565b6000546001600160a01b031681565b600360205260009081526040902080546001820180549192916105a590610f3f565b80601f01602080910402602001604051908101604052809291908181526020018280546105d190610f3f565b801561061e5780601f106105f35761010080835404028352916020019161061e565b820191906000526020600020905b81548152906001019060200180831161060157829003601f168201915b50505050600283015460038401546004909401549293909290915060ff1685565b60016020526000908152604090205460ff1681565b3360009081526001602052604090205460ff1661068c5760405162461bcd60e51b815260040161068390610e3a565b60405180910390fd5b60008181526003602052604090206004015460ff166106bd5760405162461bcd60e51b815260040161068390610e84565b60008181526003602052604090819020600401805460ff19169055517f737ea773789756155ce4ec81b73f88f21c918501c8bbb06721a6c6c46beb11c290610706908390610eb1565b60405180910390a150565b600081815260036020526040902060040154819060ff166107445760405162461bcd60e51b815260040161068390610e03565b600082815260046020908152604080832033845290915290205460ff161561077e5760405162461bcd60e51b815260040161068390610d53565b600082815260046020908152604080832033808552908352818420805460ff1916600190811790915586855260038452828520600501805480830182559086529390942090920180546001600160a01b03191683179055517f5c0747fdba8e97f8bcab92ea3febc08dc63da0ff8234f3191f1af5a4032c6f8392610806928692909190610eba565b60405180910390a15050565b3360009081526001602052604090205460ff166108415760405162461bcd60e51b815260040161068390610e3a565b60008181526003602052604090206004015460ff16156108735760405162461bcd60e51b815260040161068390610dcc565b6000908152600360205260409020600401805460ff19166001179055565b3360009081526001602052604081205460ff166108c05760405162461bcd60e51b815260040161068390610e3a565b5060009081526003602052604090206005015490565b3360009081526001602052604090205460ff166109055760405162461bcd60e51b815260040161068390610e3a565b6001600160a01b03811660009081526001602052604090205460ff161561093e5760405162461bcd60e51b815260040161068390610d9d565b6001600160a01b038116600090815260016020819052604091829020805460ff19169091179055517f0fd42d8e27c57b559503004be9fa8b7afc701e92663745556b34e1bc24c86e0690610706908390610c7b565b60025481565b3360009081526001602052604081205460ff166109c85760405162461bcd60e51b815260040161068390610e3a565b600280549060006109d883610f7a565b9091555050600254600081815260036020908152604090912082815586519091610a09916001840191890190610a6b565b50600281018590556003810184905560048101805460ff191690556040517f4904011aa43162d2343adeb37498885f778d0af67c7ccfc7810d7068192b2a1b90610a5a908490899089908990610edb565b60405180910390a150949350505050565b828054610a7790610f3f565b90600052602060002090601f016020900481019282610a995760008555610adf565b82601f10610ab257805160ff1916838001178555610adf565b82800160010185558215610adf579182015b82811115610adf578251825591602001919060010190610ac4565b50610aeb929150610aef565b5090565b5b80821115610aeb5760008155600101610af0565b80356001600160a01b038116811461028257600080fd5b600060208284031215610b2c578081fd5b610b3582610b04565b9392505050565b600080600060608486031215610b50578182fd5b833567ffffffffffffffff80821115610b67578384fd5b818601915086601f830112610b7a578384fd5b8135602082821115610b8e57610b8e610fa1565b604051601f8301601f1916810182018481118282101715610bb157610bb1610fa1565b60405282815284830182018a1015610bc7578687fd5b828286018383013791820181019590955297938601359650505060409093013592509050565b600060208284031215610bfe578081fd5b5035919050565b60008060408385031215610c17578182fd5b82359150610c2760208401610b04565b90509250929050565b60008151808452815b81811015610c5557602081850181015186830182015201610c39565b81811115610c665782602083870101525b50601f01601f19169290920160200192915050565b6001600160a01b0391909116815260200190565b6020808252825182820181905260009190848201906040850190845b81811015610cc757835183529284019291840191600101610cab565b50909695505050505050565b901515815260200190565b600060a08252610cf160a0830188610c30565b60208381018890526040840187905285151560608501528382036080850152845180835285820192820190845b81811015610d435784516001600160a01b031683529383019391830191600101610d1e565b50909a9950505050505050505050565b6020808252602a908201527f417474656e64616e636520616c7265616479206d61726b656420666f7220746860408201526934b99039b2b9b9b4b7b760b11b606082015260800190565b60208082526015908201527420b63932b0b23c9030b71034b739ba393ab1ba37b960591b604082015260600190565b60208082526017908201527f53657373696f6e20697320616c7265616479206f70656e000000000000000000604082015260600190565b6020808252601e908201527f417474656e64616e63652073657373696f6e206973206e6f74206f70656e0000604082015260600190565b6020808252602a908201527f4f6e6c7920616e20696e7374727563746f722063616e20706572666f726d20746040820152693434b99030b1ba34b7b760b11b606082015260800190565b60208082526013908201527229b2b9b9b4b7b71034b9903737ba1037b832b760691b604082015260600190565b90815260200190565b9283526001600160a01b039190911660208301521515604082015260600190565b600085825260806020830152610ef46080830186610c30565b6040830194909452506060015292915050565b600086825260a06020830152610f2060a0830187610c30565b6040830195909552506060810192909252151560809091015292915050565b600281046001821680610f5357607f821691505b60208210811415610f7457634e487b7160e01b600052602260045260246000fd5b50919050565b6000600019821415610f9a57634e487b7160e01b81526011600452602481fd5b5060010190565b634e487b7160e01b600052604160045260246000fdfea2646970667358221220701e2521704f5b742aa0da2758081f3af752fd1675b48269acbb6ee0f0f5c05e64736f6c63430008000033",
  "linkReferences": {},
  "deployedLinkReferences": {}
}