{
  "_format": "hh-sol-artifact-1",
  "contractName": "Counter",
  "sourceName": "contracts/Counter.sol",
  "abi": [
    {
      "inputs": [],
      "stateMutability": "nonpayable",
      "type": "constructor"
    },
    {
      "inputs": [
        {
          "internalType": "int256",
          "name": "n",
          "type": "int256"
        }
      ],
      "name": "decrement",
      "outputs": [],
      "stateMutability": "nonpayable",
      "type": "function"
    },
    {
      "inputs": [
        {
          "internalType": "int256",
          "name": "n",
          "type": "int256"
        }
      ],
      "name": "increment",
      "outputs": [],
      "stateMutability": "nonpayable",
      "type": "function"
    },
    {
      "inputs": [
        {
          "internalType": "int256",
          "name": "x",
          "type": "int256"
        }
      ],
      "name": "initialize",
      "outputs": [],
      "stateMutability": "nonpayable",
      "type": "function"
    },
    {
      "inputs": [],
      "name": "value",
      "outputs": [
        {
          "internalType": "int256",
          "name": "",
          "type": "int256"
        }
      ],
      "stateMutability": "view",
      "type": "function"
    }
  ],
  "bytecode": "0x608060405234801561001057600080fd5b50600180546001600160a01b03191633179055610242806100326000396000f3fe608060405234801561001057600080fd5b506004361061004c5760003560e01c80633fa4f2451461005157806359664f341461006f578063c03c300314610084578063db7dd6b514610097575b600080fd5b6100596100aa565b6040516100669190610122565b60405180910390f35b61008261007d36600461010a565b6100b0565b005b61008261009236600461010a565b6100e8565b6100826100a536600461010a565b6100fc565b60005481565b6001546001600160a01b031633146100e35760405162461bcd60e51b81526004016100da9061012b565b60405180910390fd5b600055565b806000546100f69190610176565b60005550565b806000546100f691906101b7565b60006020828403121561011b578081fd5b5035919050565b90815260200190565b6020808252602b908201527f4f6e6c7920746865206f7267616e697a65722063616e20706572666f726d207460408201526a3434b99030b1ba34b7b71760a91b606082015260800190565b600080821280156001600160ff1b0384900385131615610198576101986101f6565b600160ff1b83900384128116156101b1576101b16101f6565b50500190565b60008083128015600160ff1b8501841216156101d5576101d56101f6565b6001600160ff1b03840183138116156101f0576101f06101f6565b50500390565b634e487b7160e01b600052601160045260246000fdfea26469706673582212206a789c38350cd3bfc07156073571b4cad30b4cb0f161b3d4bd747ceda4db30b964736f6c63430008000033",
  "linkReferences": {},
  "deployedLinkReferences": {}
}